{
	"data": {
		"bytecode": {
			"linkReferences": {},
			"object": "6080604052348015600e575f5ffd5b50606a80601a5f395ff3fe6080604052348015600e575f5ffd5b50600436106026575f3560e01c806354569d0f14602a575b5f5ffd5b60306032565b005b56fea2646970667358221220274b5d1367f04dfce4c781f8d874fafe72eb5e720cfa95433a04ea3ddfa39cbc64736f6c634300081e0033",
			"opcodes": "PUSH1 0x80 PUSH1 0x40 MSTORE CALLVALUE DUP1 ISZERO PUSH1 0xE JUMPI PUSH0 PUSH0 REVERT JUMPDEST POP PUSH1 0x6A DUP1 PUSH1 0x1A PUSH0 CODECOPY PUSH0 RETURN INVALID PUSH1 0x80 PUSH1 0x40 MSTORE CALLVALUE DUP1 ISZERO PUSH1 0xE JUMPI PUSH0 PUSH0 REVERT JUMPDEST POP PUSH1 0x4 CALLDATASIZE LT PUSH1 0x26 JUMPI PUSH0 CALLDATALOAD PUSH1 0xE0 SHR DUP1 PUSH4 0x54569D0F EQ PUSH1 0x2A JUMPI JUMPDEST PUSH0 PUSH0 REVERT JUMPDEST PUSH1 0x30 PUSH1 0x32 JUMP JUMPDEST STOP JUMPDEST JUMP INVALID LOG2 PUSH5 0x6970667358 0x22 SLT KECCAK256 0x27 0x4B TSTORE SGT PUSH8 0xF04DFCE4C781F8D8 PUSH21 0xFAFE72EB5E720CFA95433A04EA3DDFA39CBC64736F PUSH13 0x634300081E0033000000000000 "
		},
		"gasEstimates": {
			"creation": {
				"codeDepositCost": "21200",
				"executionCost": "73",
				"totalCost": "21273"
			},
			"external": {
				"createHello()": "121"
			}
		},
		"methodIdentifiers": {
			"createHello()": "54569d0f"
		}
	},
	"abi": [
		{
			"inputs": [],
			"name": "createHello",
			"outputs": [],
			"stateMutability": "nonpayable",
			"type": "function"
		}
	]
}